{
  "_format": "hh3-artifact-1",
  "contractName": "DocumentAnchor",
  "sourceName": "contracts/DocumentAnchor.sol",
  "abi": [
    {
      "anonymous": false,
      "inputs": [
        {
          "indexed": false,
          "internalType": "bytes32",
          "name": "documentHash",
          "type": "bytes32"
        },
        {
          "indexed": false,
          "internalType": "uint256",
          "name": "timestamp",
          "type": "uint256"
        }
      ],
      "name": "DocumentAnchored",
      "type": "event"
    },
    {
      "inputs": [
        {
          "internalType": "bytes32",
          "name": "documentHash",
          "type": "bytes32"
        }
      ],
      "name": "anchor",
      "outputs": [],
      "stateMutability": "nonpayable",
      "type": "function"
    },
    {
      "inputs": [
        {
          "internalType": "bytes32",
          "name": "",
          "type": "bytes32"
        }
      ],
      "name": "anchoredAt",
      "outputs": [
        {
          "internalType": "uint256",
          "name": "",
          "type": "uint256"
        }
      ],
      "stateMutability": "view",
      "type": "function"
    },
    {
      "inputs": [
        {
          "internalType": "bytes32",
          "name": "documentHash",
          "type": "bytes32"
        }
      ],
      "name": "isAnchored",
      "outputs": [
        {
          "internalType": "bool",
          "name": "",
          "type": "bool"
        }
      ],
      "stateMutability": "view",
      "type": "function"
    }
  ],
  "bytecode": "0x6080604052348015600e575f5ffd5b506101a58061001c5f395ff3fe608060405234801561000f575f5ffd5b506004361061003f575f3560e01c80634f0b5801146100435780639591a61014610079578063eecdf927146100a6575b5f5ffd5b610064610051366004610158565b5f90815260208190526040902054151590565b60405190151581526020015b60405180910390f35b610098610087366004610158565b5f6020819052908152604090205481565b604051908152602001610070565b6100b96100b4366004610158565b6100bb565b005b5f818152602081905260409020541561010d5760405162461bcd60e51b815260206004820152601060248201526f105b1c9958591e48185b98da1bdc995960821b604482015260640160405180910390fd5b5f818152602081815260409182902042908190558251848152918201527f8b3c24fcb7262a2d0ecddc1da2e3d6d68968811222e79eccab3d2dc7d725ef41910160405180910390a150565b5f60208284031215610168575f5ffd5b503591905056fea2646970667358221220d1ce8656b34b814ad7661652e041682bafd7411773d2939014c698d1484ec38264736f6c634300081c0033",
  "linkReferences": {},
  "deployedLinkReferences": {},
  "immutableReferences": {},
  "inputSourceName": "project/contracts/DocumentAnchor.sol",
  "buildInfoId": "solc-0_8_28-40e8e29fc48ada5dd5b5ac7af53796a1235cc24e"
}